{
  "_format": "hh-sol-artifact-1",
  "contractName": "RaceContract",
  "sourceName": "contracts/RaceContract.sol",
  "abi": [
    {
      "inputs": [],
      "stateMutability": "nonpayable",
      "type": "constructor"
    },
    {
      "inputs": [
        {
          "internalType": "address",
          "name": "owner",
          "type": "address"
        }
      ],
      "name": "OwnableInvalidOwner",
      "type": "error"
    },
    {
      "inputs": [
        {
          "internalType": "address",
          "name": "account",
          "type": "address"
        }
      ],
      "name": "OwnableUnauthorizedAccount",
      "type": "error"
    },
    {
      "inputs": [],
      "name": "ReentrancyGuardReentrantCall",
      "type": "error"
    },
    {
      "anonymous": false,
      "inputs": [
        {
          "indexed": true,
          "internalType": "address",
          "name": "player",
          "type": "address"
        },
        {
          "indexed": false,
          "internalType": "uint256",
          "name": "amount",
          "type": "uint256"
        }
      ],
      "name": "BalanceWithdrawn",
      "type": "event"
    },
    {
      "anonymous": false,
      "inputs": [
        {
          "indexed": true,
          "internalType": "uint256",
          "name": "raceId",
          "type": "uint256"
        },
        {
          "indexed": false,
          "internalType": "uint256",
          "name": "amount",
          "type": "uint256"
        }
      ],
      "name": "FeeCollected",
      "type": "event"
    },
    {
      "anonymous": false,
      "inputs": [
        {
          "indexed": true,
          "internalType": "address",
          "name": "previousOwner",
          "type": "address"
        },
        {
          "indexed": true,
          "internalType": "address",
          "name": "newOwner",
          "type": "address"
        }
      ],
      "name": "OwnershipTransferred",
      "type": "event"
    },
    {
      "anonymous": false,
      "inputs": [
        {
          "indexed": true,
          "internalType": "uint256",
          "name": "raceId",
          "type": "uint256"
        },
        {
          "indexed": false,
          "internalType": "uint256",
          "name": "entryFee",
          "type": "uint256"
        },
        {
          "indexed": false,
          "internalType": "uint256",
          "name": "maxPlayers",
          "type": "uint256"
        },
        {
          "indexed": false,
          "internalType": "uint256",
          "name": "timestamp",
          "type": "uint256"
        }
      ],
      "name": "RaceCreated",
      "type": "event"
    },
    {
      "anonymous": false,
      "inputs": [
        {
          "indexed": true,
          "internalType": "uint256",
          "name": "raceId",
          "type": "uint256"
        },
        {
          "indexed": false,
          "internalType": "uint256",
          "name": "winner",
          "type": "uint256"
        },
        {
          "indexed": false,
          "internalType": "address",
          "name": "winnerAddress",
          "type": "address"
        },
        {
          "indexed": false,
          "internalType": "uint256",
          "name": "payout",
          "type": "uint256"
        },
        {
          "indexed": false,
          "internalType": "uint256",
          "name": "timestamp",
          "type": "uint256"
        }
      ],
      "name": "RaceFinalized",
      "type": "event"
    },
    {
      "anonymous": false,
      "inputs": [
        {
          "indexed": true,
          "internalType": "uint256",
          "name": "raceId",
          "type": "uint256"
        },
        {
          "indexed": true,
          "internalType": "address",
          "name": "player",
          "type": "address"
        },
        {
          "indexed": false,
          "internalType": "uint256",
          "name": "cockroachId",
          "type": "uint256"
        },
        {
          "indexed": false,
          "internalType": "uint256",
          "name": "timestamp",
          "type": "uint256"
        }
      ],
      "name": "RaceJoined",
      "type": "event"
    },
    {
      "anonymous": false,
      "inputs": [
        {
          "indexed": true,
          "internalType": "uint256",
          "name": "raceId",
          "type": "uint256"
        },
        {
          "indexed": false,
          "internalType": "uint256",
          "name": "timestamp",
          "type": "uint256"
        }
      ],
      "name": "RaceStarted",
      "type": "event"
    },
    {
      "inputs": [
        {
          "internalType": "uint256",
          "name": "_entryFee",
          "type": "uint256"
        },
        {
          "internalType": "uint256",
          "name": "_maxPlayers",
          "type": "uint256"
        }
      ],
      "name": "createRace",
      "outputs": [
        {
          "internalType": "uint256",
          "name": "",
          "type": "uint256"
        }
      ],
      "stateMutability": "nonpayable",
      "type": "function"
    },
    {
      "inputs": [],
      "name": "feeCollector",
      "outputs": [
        {
          "internalType": "address",
          "name": "",
          "type": "address"
        }
      ],
      "stateMutability": "view",
      "type": "function"
    },
    {
      "inputs": [
        {
          "internalType": "uint256",
          "name": "_raceId",
          "type": "uint256"
        },
        {
          "internalType": "uint256",
          "name": "_winnerIndex",
          "type": "uint256"
        }
      ],
      "name": "finalizeRace",
      "outputs": [],
      "stateMutability": "nonpayable",
      "type": "function"
    },
    {
      "inputs": [
        {
          "internalType": "address",
          "name": "_player",
          "type": "address"
        }
      ],
      "name": "getBalance",
      "outputs": [
        {
          "internalType": "uint256",
          "name": "",
          "type": "uint256"
        }
      ],
      "stateMutability": "view",
      "type": "function"
    },
    {
      "inputs": [
        {
          "internalType": "uint256",
          "name": "_raceId",
          "type": "uint256"
        }
      ],
      "name": "getRace",
      "outputs": [
        {
          "components": [
            {
              "internalType": "uint256",
              "name": "id",
              "type": "uint256"
            },
            {
              "internalType": "uint256",
              "name": "entryFee",
              "type": "uint256"
            },
            {
              "internalType": "uint256",
              "name": "maxPlayers",
              "type": "uint256"
            },
            {
              "internalType": "uint256",
              "name": "currentPlayers",
              "type": "uint256"
            },
            {
              "internalType": "uint256",
              "name": "totalPot",
              "type": "uint256"
            },
            {
              "internalType": "address[]",
              "name": "players",
              "type": "address[]"
            },
            {
              "internalType": "uint256[]",
              "name": "cockroachIds",
              "type": "uint256[]"
            },
            {
              "internalType": "uint256",
              "name": "winner",
              "type": "uint256"
            },
            {
              "internalType": "bool",
              "name": "started",
              "type": "bool"
            },
            {
              "internalType": "bool",
              "name": "finalized",
              "type": "bool"
            },
            {
              "internalType": "uint256",
              "name": "createdAt",
              "type": "uint256"
            },
            {
              "internalType": "uint256",
              "name": "startedAt",
              "type": "uint256"
            },
            {
              "internalType": "uint256",
              "name": "finalizedAt",
              "type": "uint256"
            }
          ],
          "internalType": "struct RaceContract.Race",
          "name": "",
          "type": "tuple"
        }
      ],
      "stateMutability": "view",
      "type": "function"
    },
    {
      "inputs": [
        {
          "internalType": "uint256",
          "name": "_raceId",
          "type": "uint256"
        }
      ],
      "name": "getRaceCockroachIds",
      "outputs": [
        {
          "internalType": "uint256[]",
          "name": "",
          "type": "uint256[]"
        }
      ],
      "stateMutability": "view",
      "type": "function"
    },
    {
      "inputs": [
        {
          "internalType": "uint256",
          "name": "_raceId",
          "type": "uint256"
        }
      ],
      "name": "getRacePlayers",
      "outputs": [
        {
          "internalType": "address[]",
          "name": "",
          "type": "address[]"
        }
      ],
      "stateMutability": "view",
      "type": "function"
    },
    {
      "inputs": [
        {
          "internalType": "uint256",
          "name": "_raceId",
          "type": "uint256"
        },
        {
          "internalType": "address",
          "name": "_player",
          "type": "address"
        }
      ],
      "name": "hasJoinedRace",
      "outputs": [
        {
          "internalType": "bool",
          "name": "",
          "type": "bool"
        }
      ],
      "stateMutability": "view",
      "type": "function"
    },
    {
      "inputs": [
        {
          "internalType": "uint256",
          "name": "_raceId",
          "type": "uint256"
        },
        {
          "internalType": "uint256",
          "name": "_cockroachId",
          "type": "uint256"
        }
      ],
      "name": "joinRace",
      "outputs": [],
      "stateMutability": "payable",
      "type": "function"
    },
    {
      "inputs": [],
      "name": "owner",
      "outputs": [
        {
          "internalType": "address",
          "name": "",
          "type": "address"
        }
      ],
      "stateMutability": "view",
      "type": "function"
    },
    {
      "inputs": [],
      "name": "platformFeePercent",
      "outputs": [
        {
          "internalType": "uint256",
          "name": "",
          "type": "uint256"
        }
      ],
      "stateMutability": "view",
      "type": "function"
    },
    {
      "inputs": [
        {
          "internalType": "address",
          "name": "",
          "type": "address"
        }
      ],
      "name": "playerBalances",
      "outputs": [
        {
          "internalType": "uint256",
          "name": "",
          "type": "uint256"
        }
      ],
      "stateMutability": "view",
      "type": "function"
    },
    {
      "inputs": [],
      "name": "raceCounter",
      "outputs": [
        {
          "internalType": "uint256",
          "name": "",
          "type": "uint256"
        }
      ],
      "stateMutability": "view",
      "type": "function"
    },
    {
      "inputs": [
        {
          "internalType": "uint256",
          "name": "",
          "type": "uint256"
        }
      ],
      "name": "races",
      "outputs": [
        {
          "internalType": "uint256",
          "name": "id",
          "type": "uint256"
        },
        {
          "internalType": "uint256",
          "name": "entryFee",
          "type": "uint256"
        },
        {
          "internalType": "uint256",
          "name": "maxPlayers",
          "type": "uint256"
        },
        {
          "internalType": "uint256",
          "name": "currentPlayers",
          "type": "uint256"
        },
        {
          "internalType": "uint256",
          "name": "totalPot",
          "type": "uint256"
        },
        {
          "internalType": "uint256",
          "name": "winner",
          "type": "uint256"
        },
        {
          "internalType": "bool",
          "name": "started",
          "type": "bool"
        },
        {
          "internalType": "bool",
          "name": "finalized",
          "type": "bool"
        },
        {
          "internalType": "uint256",
          "name": "createdAt",
          "type": "uint256"
        },
        {
          "internalType": "uint256",
          "name": "startedAt",
          "type": "uint256"
        },
        {
          "internalType": "uint256",
          "name": "finalizedAt",
          "type": "uint256"
        }
      ],
      "stateMutability": "view",
      "type": "function"
    },
    {
      "inputs": [],
      "name": "renounceOwnership",
      "outputs": [],
      "stateMutability": "nonpayable",
      "type": "function"
    },
    {
      "inputs": [
        {
          "internalType": "address",
          "name": "_feeCollector",
          "type": "address"
        }
      ],
      "name": "setFeeCollector",
      "outputs": [],
      "stateMutability": "nonpayable",
      "type": "function"
    },
    {
      "inputs": [
        {
          "internalType": "uint256",
          "name": "_feePercent",
          "type": "uint256"
        }
      ],
      "name": "setPlatformFee",
      "outputs": [],
      "stateMutability": "nonpayable",
      "type": "function"
    },
    {
      "inputs": [
        {
          "internalType": "uint256",
          "name": "_raceId",
          "type": "uint256"
        }
      ],
      "name": "startRace",
      "outputs": [],
      "stateMutability": "nonpayable",
      "type": "function"
    },
    {
      "inputs": [
        {
          "internalType": "address",
          "name": "newOwner",
          "type": "address"
        }
      ],
      "name": "transferOwnership",
      "outputs": [],
      "stateMutability": "nonpayable",
      "type": "function"
    },
    {
      "inputs": [],
      "name": "withdraw",
      "outputs": [],
      "stateMutability": "nonpayable",
      "type": "function"
    }
  ],
  "bytecode": "0x6080604052600560035534801561001557600080fd5b50338061003c57604051631e4fbdf760e01b81526000600482015260240160405180910390fd5b61004581610061565b5060018055600480546001600160a01b031916331790556100b1565b600080546001600160a01b038381166001600160a01b0319831681178455604051919092169283917f8be0079c531659141344cd1fd0a4f28419497f9722a3daafe3b4186f6b6457e09190a35050565b61156d806100c06000396000f3fe60806040526004361061011f5760003560e01c8063715018a6116100a05780638da5cb5b116100645780638da5cb5b146103d8578063a42dce801461040a578063c415b95c1461042a578063f2fde38b1461044a578063f8b2cb4f1461046a57600080fd5b8063715018a6146102855780637b38314c1461029a5780637bbc469e146102c7578063804f53f9146103955780638c639a85146103c257600080fd5b80632b39fed3116100e75780632b39fed3146101e95780632b7d86b7146102195780633ccfd60b1461022c578063420f035114610241578063710ada351461026f57600080fd5b806301f67149146101245780630d71aba51461014657806312e8e2c31461017c57806319873ace1461019c57806324d822bf146101c9575b600080fd5b34801561013057600080fd5b5061014461013f3660046111f4565b6104a0565b005b34801561015257600080fd5b50610166610161366004611216565b61075d565b60405161017391906112a3565b60405180910390f35b34801561018857600080fd5b50610144610197366004611216565b610916565b3480156101a857600080fd5b506101bc6101b7366004611216565b610963565b6040516101739190611377565b3480156101d557600080fd5b506101446101e4366004611216565b6109d2565b3480156101f557600080fd5b506102096102043660046113e0565b610aed565b6040519015158152602001610173565b6101446102273660046111f4565b610b6c565b34801561023857600080fd5b50610144610d87565b34801561024d57600080fd5b5061026161025c3660046111f4565b610ec0565b604051908152602001610173565b34801561027b57600080fd5b5061026160025481565b34801561029157600080fd5b50610144611027565b3480156102a657600080fd5b506102616102b536600461140c565b60066020526000908152604090205481565b3480156102d357600080fd5b5061033e6102e2366004611216565b600560205260009081526040902080546001820154600283015460038401546004850154600786015460088701546009880154600a890154600b9099015497989697959694959394929360ff808416946101009094041692908b565b604080519b8c5260208c019a909a52988a01979097526060890195909552608088019390935260a0870191909152151560c0860152151560e085015261010084015261012083015261014082015261016001610173565b3480156103a157600080fd5b506103b56103b0366004611216565b611039565b604051610173919061142e565b3480156103ce57600080fd5b5061026160035481565b3480156103e457600080fd5b506000546001600160a01b03165b6040516001600160a01b039091168152602001610173565b34801561041657600080fd5b5061014461042536600461140c565b61109d565b34801561043657600080fd5b506004546103f2906001600160a01b031681565b34801561045657600080fd5b5061014461046536600461140c565b61110f565b34801561047657600080fd5b5061026161048536600461140c565b6001600160a01b031660009081526006602052604090205490565b6104a861114d565b6104b061117a565b600082815260056020526040812080549091036104e85760405162461bcd60e51b81526004016104df90611466565b60405180910390fd5b600881015460ff1661052f5760405162461bcd60e51b815260206004820152601060248201526f149858d9481b9bdd081cdd185c9d195960821b60448201526064016104df565b6008810154610100900460ff16156105825760405162461bcd60e51b8152602060048201526016602482015275149858d948185b1c9958591e48199a5b985b1a5e995960521b60448201526064016104df565b806003015482106105cc5760405162461bcd60e51b8152602060048201526014602482015273092dcecc2d8d2c840eed2dcdccae440d2dcc8caf60631b60448201526064016104df565b60088101805461ff0019166101001790556007810182905542600b820155600354600482015460009160649161060291906114a9565b61060c91906114c0565b9050600081836004015461062091906114e2565b90506000836005018581548110610639576106396114f5565b60009182526020808320909101546001600160a01b031680835260069091526040822080549193508492909161067090849061150b565b90915550506004546001600160a01b03166000908152600660205260408120805485929061069f90849061150b565b909155505060405183815286907faf7c505ee772ec188af7067e1f73db08ab028e3d564273442b907742b9c41fa09060200160405180910390a2857fe7d885f27c1a3597c5d0a15e3447f674cc40b97e11e0e3bfb01914ff6a3e5be0856006018781548110610710576107106114f5565b60009182526020918290200154604080519182526001600160a01b0386169282019290925290810185905242606082015260800160405180910390a25050505061075960018055565b5050565b6107cc604051806101a0016040528060008152602001600081526020016000815260200160008152602001600081526020016060815260200160608152602001600081526020016000151581526020016000151581526020016000815260200160008152602001600081525090565b60008281526005602081815260409283902083516101a08101855281548152600182015481840152600282015481860152600382015460608201526004820154608082015292810180548551818502810185019096528086529394919360a086019383018282801561086757602002820191906000526020600020905b81546001600160a01b03168152600190910190602001808311610849575b50505050508152602001600682018054806020026020016040519081016040528092919081815260200182805480156108bf57602002820191906000526020600020905b8154815260200190600101908083116108ab575b505050918352505060078201546020820152600882015460ff80821615156040840152610100909104161515606082015260098201546080820152600a82015460a0820152600b9091015460c09091015292915050565b61091e61114d565b601481111561095e5760405162461bcd60e51b815260206004820152600c60248201526b08ccaca40e8dede40d0d2ced60a31b60448201526064016104df565b600355565b6000818152600560208181526040928390209091018054835181840281018401909452808452606093928301828280156109c657602002820191906000526020600020905b81546001600160a01b031681526001909101906020018083116109a8575b50505050509050919050565b60008181526005602052604081208054909103610a015760405162461bcd60e51b81526004016104df90611466565b600881015460ff1615610a4d5760405162461bcd60e51b8152602060048201526014602482015273149858d948185b1c9958591e481cdd185c9d195960621b60448201526064016104df565b600281600301541015610a975760405162461bcd60e51b81526020600482015260126024820152714e6f7420656e6f75676820706c617965727360701b60448201526064016104df565b60088101805460ff1916600117905542600a820181905560405183917f2a7e7f34a2219dc2bca8d86910c864808f03515d072f86f133f945dbd761d6a691610ae191815260200190565b60405180910390a25050565b6000828152600560205260408120815b6005820154811015610b5f57836001600160a01b0316826005018281548110610b2857610b286114f5565b6000918252602090912001546001600160a01b031603610b4d57600192505050610b66565b80610b578161151e565b915050610afd565b5060009150505b92915050565b610b7461117a565b60008281526005602052604081208054909103610ba35760405162461bcd60e51b81526004016104df90611466565b600881015460ff1615610bef5760405162461bcd60e51b8152602060048201526014602482015273149858d948185b1c9958591e481cdd185c9d195960621b60448201526064016104df565b8060020154816003015410610c355760405162461bcd60e51b815260206004820152600c60248201526b149858d9481a5cc8199d5b1b60a21b60448201526064016104df565b80600101543414610c7e5760405162461bcd60e51b8152602060048201526013602482015272496e636f727265637420656e7472792066656560681b60448201526064016104df565b610c888333610aed565b15610cd55760405162461bcd60e51b815260206004820152601860248201527f416c7265616479206a6f696e656420746869732072616365000000000000000060448201526064016104df565b600581018054600181810183556000928352602080842090920180546001600160a01b03191633179055600684018054918201815583529082200183905560038201805491610d238361151e565b919050555034816004016000828254610d3c919061150b565b909155505060408051838152426020820152339185917f79c6f35c2b3641c59a39ac757fb41ae045af70b18a41a01d2cf2fce0c726e3ee910160405180910390a35061075960018055565b610d8f61117a565b3360009081526006602052604090205480610de55760405162461bcd60e51b81526020600482015260166024820152754e6f2062616c616e636520746f20776974686472617760501b60448201526064016104df565b336000818152600660205260408082208290555190919083908381818185875af1925050503d8060008114610e36576040519150601f19603f3d011682016040523d82523d6000602084013e610e3b565b606091505b5050905080610e7e5760405162461bcd60e51b815260206004820152600f60248201526e151c985b9cd9995c8819985a5b1959608a1b60448201526064016104df565b60405182815233907fddc398b321237a8d40ac914388309c2f52a08c134e4dc4ce61e32f57cb7d80f19060200160405180910390a25050610ebe60018055565b565b6000808311610f115760405162461bcd60e51b815260206004820181905260248201527f456e74727920666565206d7573742062652067726561746572207468616e203060448201526064016104df565b60028210158015610f235750600a8211155b610f7b5760405162461bcd60e51b8152602060048201526024808201527f4d617820706c6179657273206d757374206265206265747765656e203220616e6044820152630642031360e41b60648201526084016104df565b60028054906000610f8b8361151e565b90915550506002805460008181526005602090815260408083209384556001840188905583850187905560038401839055600484019290925560088301805461ffff191690554260098401819055935482518881529182018790529181019390935290917f16da87b2ce8ef9906525b31931f8ac5abb1cab0e4e2c72a59a61e4b1cb222a0e9060600160405180910390a2505060025492915050565b61102f61114d565b610ebe60006111a4565b6000818152600560209081526040918290206006018054835181840281018401909452808452606093928301828280156109c657602002820191906000526020600020905b81548152602001906001019080831161107e5750505050509050919050565b6110a561114d565b6001600160a01b0381166110ed5760405162461bcd60e51b815260206004820152600f60248201526e496e76616c6964206164647265737360881b60448201526064016104df565b600480546001600160a01b0319166001600160a01b0392909216919091179055565b61111761114d565b6001600160a01b03811661114157604051631e4fbdf760e01b8152600060048201526024016104df565b61114a816111a4565b50565b6000546001600160a01b03163314610ebe5760405163118cdaa760e01b81523360048201526024016104df565b60026001540361119d57604051633ee5aeb560e01b815260040160405180910390fd5b6002600155565b600080546001600160a01b038381166001600160a01b0319831681178455604051919092169283917f8be0079c531659141344cd1fd0a4f28419497f9722a3daafe3b4186f6b6457e09190a35050565b6000806040838503121561120757600080fd5b50508035926020909101359150565b60006020828403121561122857600080fd5b5035919050565b600081518084526020808501945080840160005b838110156112685781516001600160a01b031687529582019590820190600101611243565b509495945050505050565b600081518084526020808501945080840160005b8381101561126857815187529582019590820190600101611287565b6020815281516020820152602082015160408201526040820151606082015260608201516080820152608082015160a0820152600060a08301516101a08060c08501526112f46101c085018361122f565b915060c0850151601f198584030160e08601526113118382611273565b92505060e08501516101008181870152808701519150506101206113388187018315159052565b860151905061014061134d8682018315159052565b86015161016086810191909152860151610180808701919091529095015193019290925250919050565b6020808252825182820181905260009190848201906040850190845b818110156113b85783516001600160a01b031683529284019291840191600101611393565b50909695505050505050565b80356001600160a01b03811681146113db57600080fd5b919050565b600080604083850312156113f357600080fd5b82359150611403602084016113c4565b90509250929050565b60006020828403121561141e57600080fd5b611427826113c4565b9392505050565b6020808252825182820181905260009190848201906040850190845b818110156113b85783518352928401929184019160010161144a565b602080825260139082015272149858d948191bd95cc81b9bdd08195e1a5cdd606a1b604082015260600190565b634e487b7160e01b600052601160045260246000fd5b8082028115828204841417610b6657610b66611493565b6000826114dd57634e487b7160e01b600052601260045260246000fd5b500490565b81810381811115610b6657610b66611493565b634e487b7160e01b600052603260045260246000fd5b80820180821115610b6657610b66611493565b60006001820161153057611530611493565b506001019056fea264697066735822122014e8570bea98889e7816055846286f9c78b7d054dc7185eacca28e2f1e5ccc1864736f6c63430008140033",
  "linkReferences": {},
  "deployedLinkReferences": {}
}